{
  "_format": "hh3-artifact-1",
  "contractName": "TokenFaucet",
  "sourceName": "contracts/TokenFaucet.sol",
  "abi": [
    {
      "inputs": [
        {
          "internalType": "address",
          "name": "tokenAddress",
          "type": "address"
        },
        {
          "internalType": "uint256",
          "name": "tokensPerRequest_",
          "type": "uint256"
        },
        {
          "internalType": "uint256",
          "name": "cooldownTime_",
          "type": "uint256"
        },
        {
          "internalType": "uint256",
          "name": "maxTokensPerAddress_",
          "type": "uint256"
        },
        {
          "internalType": "uint256",
          "name": "dailyLimit_",
          "type": "uint256"
        }
      ],
      "stateMutability": "nonpayable",
      "type": "constructor"
    },
    {
      "inputs": [],
      "name": "EnforcedPause",
      "type": "error"
    },
    {
      "inputs": [],
      "name": "ExpectedPause",
      "type": "error"
    },
    {
      "inputs": [
        {
          "internalType": "address",
          "name": "owner",
          "type": "address"
        }
      ],
      "name": "OwnableInvalidOwner",
      "type": "error"
    },
    {
      "inputs": [
        {
          "internalType": "address",
          "name": "account",
          "type": "address"
        }
      ],
      "name": "OwnableUnauthorizedAccount",
      "type": "error"
    },
    {
      "inputs": [],
      "name": "ReentrancyGuardReentrantCall",
      "type": "error"
    },
    {
      "inputs": [
        {
          "internalType": "address",
          "name": "token",
          "type": "address"
        }
      ],
      "name": "SafeERC20FailedOperation",
      "type": "error"
    },
    {
      "anonymous": false,
      "inputs": [
        {
          "indexed": false,
          "internalType": "uint256",
          "name": "newDay",
          "type": "uint256"
        },
        {
          "indexed": false,
          "internalType": "uint256",
          "name": "totalDistributed",
          "type": "uint256"
        }
      ],
      "name": "DailyLimitReset",
      "type": "event"
    },
    {
      "anonymous": false,
      "inputs": [
        {
          "indexed": true,
          "internalType": "address",
          "name": "token",
          "type": "address"
        },
        {
          "indexed": false,
          "internalType": "uint256",
          "name": "amount",
          "type": "uint256"
        }
      ],
      "name": "EmergencyWithdraw",
      "type": "event"
    },
    {
      "anonymous": false,
      "inputs": [
        {
          "indexed": false,
          "internalType": "uint256",
          "name": "tokensPerRequest",
          "type": "uint256"
        },
        {
          "indexed": false,
          "internalType": "uint256",
          "name": "cooldownTime",
          "type": "uint256"
        },
        {
          "indexed": false,
          "internalType": "uint256",
          "name": "maxTokensPerAddress",
          "type": "uint256"
        },
        {
          "indexed": false,
          "internalType": "uint256",
          "name": "dailyLimit",
          "type": "uint256"
        }
      ],
      "name": "FaucetConfigured",
      "type": "event"
    },
    {
      "anonymous": false,
      "inputs": [
        {
          "indexed": true,
          "internalType": "address",
          "name": "previousOwner",
          "type": "address"
        },
        {
          "indexed": true,
          "internalType": "address",
          "name": "newOwner",
          "type": "address"
        }
      ],
      "name": "OwnershipTransferred",
      "type": "event"
    },
    {
      "anonymous": false,
      "inputs": [
        {
          "indexed": false,
          "internalType": "address",
          "name": "account",
          "type": "address"
        }
      ],
      "name": "Paused",
      "type": "event"
    },
    {
      "anonymous": false,
      "inputs": [
        {
          "indexed": true,
          "internalType": "address",
          "name": "depositor",
          "type": "address"
        },
        {
          "indexed": false,
          "internalType": "uint256",
          "name": "amount",
          "type": "uint256"
        }
      ],
      "name": "TokensDeposited",
      "type": "event"
    },
    {
      "anonymous": false,
      "inputs": [
        {
          "indexed": true,
          "internalType": "address",
          "name": "user",
          "type": "address"
        },
        {
          "indexed": false,
          "internalType": "uint256",
          "name": "amount",
          "type": "uint256"
        },
        {
          "indexed": false,
          "internalType": "uint256",
          "name": "timestamp",
          "type": "uint256"
        }
      ],
      "name": "TokensRequested",
      "type": "event"
    },
    {
      "anonymous": false,
      "inputs": [
        {
          "indexed": true,
          "internalType": "address",
          "name": "owner",
          "type": "address"
        },
        {
          "indexed": false,
          "internalType": "uint256",
          "name": "amount",
          "type": "uint256"
        }
      ],
      "name": "TokensWithdrawn",
      "type": "event"
    },
    {
      "anonymous": false,
      "inputs": [
        {
          "indexed": false,
          "internalType": "address",
          "name": "account",
          "type": "address"
        }
      ],
      "name": "Unpaused",
      "type": "event"
    },
    {
      "anonymous": false,
      "inputs": [
        {
          "indexed": true,
          "internalType": "address",
          "name": "user",
          "type": "address"
        },
        {
          "indexed": false,
          "internalType": "bool",
          "name": "status",
          "type": "bool"
        }
      ],
      "name": "UserBlacklisted",
      "type": "event"
    },
    {
      "inputs": [
        {
          "internalType": "address[]",
          "name": "recipients",
          "type": "address[]"
        },
        {
          "internalType": "uint256[]",
          "name": "amounts",
          "type": "uint256[]"
        }
      ],
      "name": "batchDistribute",
      "outputs": [],
      "stateMutability": "nonpayable",
      "type": "function"
    },
    {
      "inputs": [
        {
          "internalType": "address",
          "name": "",
          "type": "address"
        }
      ],
      "name": "blacklisted",
      "outputs": [
        {
          "internalType": "bool",
          "name": "",
          "type": "bool"
        }
      ],
      "stateMutability": "view",
      "type": "function"
    },
    {
      "inputs": [
        {
          "internalType": "address",
          "name": "user",
          "type": "address"
        }
      ],
      "name": "canUserRequest",
      "outputs": [
        {
          "internalType": "bool",
          "name": "",
          "type": "bool"
        }
      ],
      "stateMutability": "view",
      "type": "function"
    },
    {
      "inputs": [
        {
          "internalType": "uint256",
          "name": "tokensPerRequest_",
          "type": "uint256"
        },
        {
          "internalType": "uint256",
          "name": "cooldownTime_",
          "type": "uint256"
        },
        {
          "internalType": "uint256",
          "name": "maxTokensPerAddress_",
          "type": "uint256"
        },
        {
          "internalType": "uint256",
          "name": "dailyLimit_",
          "type": "uint256"
        }
      ],
      "name": "configureFaucet",
      "outputs": [],
      "stateMutability": "nonpayable",
      "type": "function"
    },
    {
      "inputs": [],
      "name": "cooldownTime",
      "outputs": [
        {
          "internalType": "uint256",
          "name": "",
          "type": "uint256"
        }
      ],
      "stateMutability": "view",
      "type": "function"
    },
    {
      "inputs": [],
      "name": "dailyLimit",
      "outputs": [
        {
          "internalType": "uint256",
          "name": "",
          "type": "uint256"
        }
      ],
      "stateMutability": "view",
      "type": "function"
    },
    {
      "inputs": [
        {
          "internalType": "uint256",
          "name": "amount",
          "type": "uint256"
        }
      ],
      "name": "depositTokens",
      "outputs": [],
      "stateMutability": "nonpayable",
      "type": "function"
    },
    {
      "inputs": [
        {
          "internalType": "address",
          "name": "tokenAddress",
          "type": "address"
        },
        {
          "internalType": "uint256",
          "name": "amount",
          "type": "uint256"
        }
      ],
      "name": "emergencyWithdraw",
      "outputs": [],
      "stateMutability": "nonpayable",
      "type": "function"
    },
    {
      "inputs": [],
      "name": "emergencyWithdrawEther",
      "outputs": [],
      "stateMutability": "nonpayable",
      "type": "function"
    },
    {
      "inputs": [],
      "name": "getFaucetBalance",
      "outputs": [
        {
          "internalType": "uint256",
          "name": "",
          "type": "uint256"
        }
      ],
      "stateMutability": "view",
      "type": "function"
    },
    {
      "inputs": [],
      "name": "getFaucetConfig",
      "outputs": [
        {
          "internalType": "uint256",
          "name": "tokensPerRequest_",
          "type": "uint256"
        },
        {
          "internalType": "uint256",
          "name": "cooldownTime_",
          "type": "uint256"
        },
        {
          "internalType": "uint256",
          "name": "maxTokensPerAddress_",
          "type": "uint256"
        },
        {
          "internalType": "uint256",
          "name": "dailyLimit_",
          "type": "uint256"
        },
        {
          "internalType": "uint256",
          "name": "totalDistributedToday_",
          "type": "uint256"
        },
        {
          "internalType": "bool",
          "name": "paused_",
          "type": "bool"
        }
      ],
      "stateMutability": "view",
      "type": "function"
    },
    {
      "inputs": [
        {
          "internalType": "address",
          "name": "user",
          "type": "address"
        }
      ],
      "name": "getUserInfo",
      "outputs": [
        {
          "internalType": "uint256",
          "name": "totalReceived",
          "type": "uint256"
        },
        {
          "internalType": "uint256",
          "name": "lastRequest",
          "type": "uint256"
        },
        {
          "internalType": "bool",
          "name": "canRequest",
          "type": "bool"
        },
        {
          "internalType": "uint256",
          "name": "timeUntilNextRequest",
          "type": "uint256"
        }
      ],
      "stateMutability": "view",
      "type": "function"
    },
    {
      "inputs": [
        {
          "internalType": "address",
          "name": "",
          "type": "address"
        }
      ],
      "name": "lastRequestTime",
      "outputs": [
        {
          "internalType": "uint256",
          "name": "",
          "type": "uint256"
        }
      ],
      "stateMutability": "view",
      "type": "function"
    },
    {
      "inputs": [],
      "name": "lastResetTime",
      "outputs": [
        {
          "internalType": "uint256",
          "name": "",
          "type": "uint256"
        }
      ],
      "stateMutability": "view",
      "type": "function"
    },
    {
      "inputs": [],
      "name": "maxTokensPerAddress",
      "outputs": [
        {
          "internalType": "uint256",
          "name": "",
          "type": "uint256"
        }
      ],
      "stateMutability": "view",
      "type": "function"
    },
    {
      "inputs": [],
      "name": "owner",
      "outputs": [
        {
          "internalType": "address",
          "name": "",
          "type": "address"
        }
      ],
      "stateMutability": "view",
      "type": "function"
    },
    {
      "inputs": [],
      "name": "pause",
      "outputs": [],
      "stateMutability": "nonpayable",
      "type": "function"
    },
    {
      "inputs": [],
      "name": "paused",
      "outputs": [
        {
          "internalType": "bool",
          "name": "",
          "type": "bool"
        }
      ],
      "stateMutability": "view",
      "type": "function"
    },
    {
      "inputs": [],
      "name": "renounceOwnership",
      "outputs": [],
      "stateMutability": "nonpayable",
      "type": "function"
    },
    {
      "inputs": [],
      "name": "requestTokens",
      "outputs": [],
      "stateMutability": "nonpayable",
      "type": "function"
    },
    {
      "inputs": [],
      "name": "resetDailyLimit",
      "outputs": [],
      "stateMutability": "nonpayable",
      "type": "function"
    },
    {
      "inputs": [
        {
          "internalType": "address",
          "name": "user",
          "type": "address"
        },
        {
          "internalType": "bool",
          "name": "status",
          "type": "bool"
        }
      ],
      "name": "setBlacklisted",
      "outputs": [],
      "stateMutability": "nonpayable",
      "type": "function"
    },
    {
      "inputs": [],
      "name": "token",
      "outputs": [
        {
          "internalType": "contract IERC20",
          "name": "",
          "type": "address"
        }
      ],
      "stateMutability": "view",
      "type": "function"
    },
    {
      "inputs": [],
      "name": "tokensPerRequest",
      "outputs": [
        {
          "internalType": "uint256",
          "name": "",
          "type": "uint256"
        }
      ],
      "stateMutability": "view",
      "type": "function"
    },
    {
      "inputs": [],
      "name": "totalDistributedToday",
      "outputs": [
        {
          "internalType": "uint256",
          "name": "",
          "type": "uint256"
        }
      ],
      "stateMutability": "view",
      "type": "function"
    },
    {
      "inputs": [
        {
          "internalType": "address",
          "name": "",
          "type": "address"
        }
      ],
      "name": "totalTokensReceived",
      "outputs": [
        {
          "internalType": "uint256",
          "name": "",
          "type": "uint256"
        }
      ],
      "stateMutability": "view",
      "type": "function"
    },
    {
      "inputs": [
        {
          "internalType": "address",
          "name": "newOwner",
          "type": "address"
        }
      ],
      "name": "transferOwnership",
      "outputs": [],
      "stateMutability": "nonpayable",
      "type": "function"
    },
    {
      "inputs": [],
      "name": "unpause",
      "outputs": [],
      "stateMutability": "nonpayable",
      "type": "function"
    },
    {
      "inputs": [
        {
          "internalType": "uint256",
          "name": "amount",
          "type": "uint256"
        }
      ],
      "name": "withdrawTokens",
      "outputs": [],
      "stateMutability": "nonpayable",
      "type": "function"
    },
    {
      "stateMutability": "payable",
      "type": "receive"
    }
  ],
  "bytecode": "0x60a060405234801561000f575f5ffd5b50604051611f58380380611f5883398101604081905261002e916102d8565b338061005457604051631e4fbdf760e01b81525f60048201526024015b60405180910390fd5b61005d81610289565b50600180556001600160a01b0385166100c35760405162461bcd60e51b815260206004820152602260248201527f546f6b656e4661756365743a20696e76616c696420746f6b656e206164647265604482015261737360f01b606482015260840161004b565b5f84116101265760405162461bcd60e51b815260206004820152602b60248201527f546f6b656e4661756365743a20746f6b656e732070657220726571756573742060448201526a06d757374206265203e20360ac1b606482015260840161004b565b8382101561019c5760405162461bcd60e51b815260206004820152603560248201527f546f6b656e4661756365743a206d617820746f6b656e73206d7573742062652060448201527f3e3d20746f6b656e732070657220726571756573740000000000000000000000606482015260840161004b565b838110156102125760405162461bcd60e51b815260206004820152603660248201527f546f6b656e4661756365743a206461696c79206c696d6974206d75737420626560448201527f203e3d20746f6b656e7320706572207265717565737400000000000000000000606482015260840161004b565b6001600160a01b03851660809081526003859055600484905560058390556006829055426008556040805186815260208101869052908101849052606081018390527fdd14f45b9cf8b28a4a56b20b830e3381b6f98a5b05bab142831fd610c6de15ff910160405180910390a15050505050610328565b5f80546001600160a01b038381166001600160a01b0319831681178455604051919092169283917f8be0079c531659141344cd1fd0a4f28419497f9722a3daafe3b4186f6b6457e09190a35050565b5f5f5f5f5f60a086880312156102ec575f5ffd5b85516001600160a01b0381168114610302575f5ffd5b602087015160408801516060890151608090990151929a91995097965090945092505050565b608051611bd961037f5f395f818161054f015281816105c0015281816106a7015281816107cc015281816108c201528181610dc201528181610f85015281816111f20152818161126301526117120152611bd95ff3fe6080604052600436106101bd575f3560e01c80638456cb59116100f2578063d01dd6d211610092578063dd49756e11610062578063dd49756e146104ec578063f1f959a61461050b578063f2fde38b1461051f578063fc0c546a1461053e575f5ffd5b8063d01dd6d214610477578063d5a9400e14610496578063dbac26e9146104aa578063dc92f8f0146104d8575f5ffd5b8063a2177124116100cd578063a217712414610403578063ad8bc26b14610418578063b208855514610437578063b319c6b714610462575f5ffd5b80638456cb59146103a05780638da5cb5b146103b457806395ccea67146103e4575f5ffd5b8063583b53901161015d5780636386c1c7116101385780636386c1c71461031357806367eeba0c14610358578063715018a61461036d5780637599370314610381575f5ffd5b8063583b5390146102985780635c975abb146102ad578063617407fd146102d0575f5ffd5b8063359cf2b711610198578063359cf2b714610226578063394f61811461023a5780633f4ba83a1461026557806350bdf28114610279575f5ffd5b8063123af30a146101c857806323a1baaa146101f0578063315a095d14610205575f5ffd5b366101c457005b5f5ffd5b3480156101d3575f5ffd5b506101dd60075481565b6040519081526020015b60405180910390f35b3480156101fb575f5ffd5b506101dd60055481565b348015610210575f5ffd5b5061022461021f366004611929565b610571565b005b348015610231575f5ffd5b50610224610727565b348015610245575f5ffd5b506101dd61025436600461195b565b60096020525f908152604090205481565b348015610270575f5ffd5b5061022461093c565b348015610284575f5ffd5b5061022461029336600461197b565b61094c565b3480156102a3575f5ffd5b506101dd60035481565b3480156102b8575f5ffd5b5060025460ff165b60405190151581526020016101e7565b3480156102db575f5ffd5b506102e4610af6565b6040805196875260208701959095529385019290925260608401526080830152151560a082015260c0016101e7565b34801561031e575f5ffd5b5061033261032d36600461195b565b610b2a565b6040805194855260208501939093529015159183019190915260608201526080016101e7565b348015610363575f5ffd5b506101dd60065481565b348015610378575f5ffd5b50610224610b94565b34801561038c575f5ffd5b506102c061039b36600461195b565b610ba5565b3480156103ab575f5ffd5b50610224610bb5565b3480156103bf575f5ffd5b505f546001600160a01b03165b6040516001600160a01b0390911681526020016101e7565b3480156103ef575f5ffd5b506102246103fe3660046119aa565b610bc5565b34801561040e575f5ffd5b506101dd60085481565b348015610423575f5ffd5b50610224610432366004611a1a565b610cb9565b348015610442575f5ffd5b506101dd61045136600461195b565b600a6020525f908152604090205481565b34801561046d575f5ffd5b506101dd60045481565b348015610482575f5ffd5b50610224610491366004611a86565b61105f565b3480156104a1575f5ffd5b50610224611114565b3480156104b5575f5ffd5b506102c06104c436600461195b565b600b6020525f908152604090205460ff1681565b3480156104e3575f5ffd5b50610224611124565b3480156104f7575f5ffd5b50610224610506366004611929565b6111be565b348015610516575f5ffd5b506101dd61124c565b34801561052a575f5ffd5b5061022461053936600461195b565b6112d9565b348015610549575f5ffd5b506103cc7f000000000000000000000000000000000000000000000000000000000000000081565b610579611313565b61058161133f565b5f81116105a95760405162461bcd60e51b81526004016105a090611abf565b60405180910390fd5b6040516370a0823160e01b815230600482015281907f00000000000000000000000000000000000000000000000000000000000000006001600160a01b0316906370a0823190602401602060405180830381865afa15801561060d573d5f5f3e3d5ffd5b505050506040513d601f19601f820116820180604052508101906106319190611af6565b10156106895760405162461bcd60e51b815260206004820152602160248201527f546f6b656e4661756365743a20696e73756666696369656e742062616c616e636044820152606560f81b60648201526084016105a0565b6106ce61069d5f546001600160a01b031690565b6001600160a01b037f0000000000000000000000000000000000000000000000000000000000000000169083611369565b5f546001600160a01b03166001600160a01b03167f6352c5382c4a4578e712449ca65e83cdb392d045dfcf1cad9615189db2da244b8260405161071391815260200190565b60405180910390a261072460018055565b50565b61072f61133f565b6107376113cd565b33610741816113f1565b6107496115c7565b60065460035460075461075c9190611b21565b11156107b45760405162461bcd60e51b815260206004820152602160248201527f546f6b656e4661756365743a206461696c79206c696d697420657863656564656044820152601960fa1b60648201526084016105a0565b6003546040516370a0823160e01b81523060048201527f00000000000000000000000000000000000000000000000000000000000000006001600160a01b0316906370a0823190602401602060405180830381865afa158015610819573d5f5f3e3d5ffd5b505050506040513d601f19601f8201168201806040525081019061083d9190611af6565b101561085b5760405162461bcd60e51b81526004016105a090611b34565b6001600160a01b0381165f908152600960209081526040808320429055600354600a9092528220805491929091610893908490611b21565b9091555050600354600780545f906108ac908490611b21565b90915550506003546108ea906001600160a01b037f000000000000000000000000000000000000000000000000000000000000000016908390611369565b600354604080519182524260208301526001600160a01b038316917f1545c907bc00c8c1959efb40287a1f8a7f5bc5041e5d550c3adef488ef337508910160405180910390a25061093a60018055565b565b610944611313565b61093a6115e5565b610954611313565b5f84116109b75760405162461bcd60e51b815260206004820152602b60248201527f546f6b656e4661756365743a20746f6b656e732070657220726571756573742060448201526a06d757374206265203e20360ac1b60648201526084016105a0565b83821015610a255760405162461bcd60e51b815260206004820152603560248201527f546f6b656e4661756365743a206d617820746f6b656e73206d757374206265206044820152740f8f481d1bdad95b9cc81c195c881c995c5d595cdd605a1b60648201526084016105a0565b83811015610a945760405162461bcd60e51b815260206004820152603660248201527f546f6b656e4661756365743a206461696c79206c696d6974206d757374206265604482015275080f8f481d1bdad95b9cc81c195c881c995c5d595cdd60521b60648201526084016105a0565b60038490556004839055600582905560068190556040805185815260208101859052908101839052606081018290527fdd14f45b9cf8b28a4a56b20b830e3381b6f98a5b05bab142831fd610c6de15ff9060800160405180910390a150505050565b5f5f5f5f5f5f600354600454600554600654600754610b1760025460ff1690565b949b939a50919850965094509092509050565b6001600160a01b0381165f908152600a602090815260408083205460099092528220546004549192909181908190610b629085611b21565b9050610b6d86611637565b925080421015610b8857610b814282611b7c565b9150610b8c565b5f91505b509193509193565b610b9c611313565b61093a5f61178b565b5f610baf82611637565b92915050565b610bbd611313565b61093a6117da565b610bcd611313565b6001600160a01b038216610c2e5760405162461bcd60e51b815260206004820152602260248201527f546f6b656e4661756365743a20696e76616c696420746f6b656e206164647265604482015261737360f01b60648201526084016105a0565b5f8111610c4d5760405162461bcd60e51b81526004016105a090611abf565b610c72610c615f546001600160a01b031690565b6001600160a01b0384169083611369565b816001600160a01b03167f5fafa99d0643513820be26656b45130b01e1c03062e1266bf36f88cbd3bd969582604051610cad91815260200190565b60405180910390a25050565b610cc1611313565b610cc961133f565b828114610d245760405162461bcd60e51b815260206004820152602360248201527f546f6b656e4661756365743a20617272617973206c656e677468206d69736d616044820152620e8c6d60eb1b60648201526084016105a0565b82610d715760405162461bcd60e51b815260206004820152601960248201527f546f6b656e4661756365743a20656d707479206172726179730000000000000060448201526064016105a0565b5f805b82811015610daa57838382818110610d8e57610d8e611b8f565b9050602002013582610da09190611b21565b9150600101610d74565b506040516370a0823160e01b815230600482015281907f00000000000000000000000000000000000000000000000000000000000000006001600160a01b0316906370a0823190602401602060405180830381865afa158015610e0f573d5f5f3e3d5ffd5b505050506040513d601f19601f82011682018060405250810190610e339190611af6565b1015610e515760405162461bcd60e51b81526004016105a090611b34565b5f5b8481101561104e575f868683818110610e6e57610e6e611b8f565b9050602002016020810190610e83919061195b565b6001600160a01b031603610ed95760405162461bcd60e51b815260206004820152601e60248201527f546f6b656e4661756365743a20696e76616c696420726563697069656e74000060448201526064016105a0565b5f848483818110610eec57610eec611b8f565b9050602002013511610f405760405162461bcd60e51b815260206004820152601b60248201527f546f6b656e4661756365743a20696e76616c696420616d6f756e74000000000060448201526064016105a0565b610fbc868683818110610f5557610f55611b8f565b9050602002016020810190610f6a919061195b565b858584818110610f7c57610f7c611b8f565b905060200201357f00000000000000000000000000000000000000000000000000000000000000006001600160a01b03166113699092919063ffffffff16565b858582818110610fce57610fce611b8f565b9050602002016020810190610fe3919061195b565b6001600160a01b03167f1545c907bc00c8c1959efb40287a1f8a7f5bc5041e5d550c3adef488ef33750885858481811061101f5761101f611b8f565b905060200201354260405161103e929190918252602082015260400190565b60405180910390a2600101610e53565b505061105960018055565b50505050565b611067611313565b6001600160a01b0382166110bd5760405162461bcd60e51b815260206004820152601c60248201527f546f6b656e4661756365743a20696e76616c696420616464726573730000000060448201526064016105a0565b6001600160a01b0382165f818152600b6020908152604091829020805460ff191685151590811790915591519182527f5b7ef9d8e7fd7ff1dae13005391bc3aa7cc048c7ba41af348e5da4dcbe7323e09101610cad565b61111c611313565b61093a611817565b61112c611313565b47806111845760405162461bcd60e51b815260206004820152602160248201527f546f6b656e4661756365743a206e6f20657468657220746f20776974686472616044820152607760f81b60648201526084016105a0565b5f80546040516001600160a01b039091169183156108fc02918491818181858888f193505050501580156111ba573d5f5f3e3d5ffd5b5050565b6111c661133f565b5f81116111e55760405162461bcd60e51b81526004016105a090611abf565b61121a6001600160a01b037f000000000000000000000000000000000000000000000000000000000000000016333084611861565b60405181815233907f59062170a285eb80e8c6b8ced60428442a51910635005233fc4ce084a475845e90602001610713565b6040516370a0823160e01b81523060048201525f907f00000000000000000000000000000000000000000000000000000000000000006001600160a01b0316906370a0823190602401602060405180830381865afa1580156112b0573d5f5f3e3d5ffd5b505050506040513d601f19601f820116820180604052508101906112d49190611af6565b905090565b6112e1611313565b6001600160a01b03811661130a57604051631e4fbdf760e01b81525f60048201526024016105a0565b6107248161178b565b5f546001600160a01b0316331461093a5760405163118cdaa760e01b81523360048201526024016105a0565b60026001540361136257604051633ee5aeb560e01b815260040160405180910390fd5b6002600155565b6040516001600160a01b038381166024830152604482018390526113c891859182169063a9059cbb906064015b604051602081830303815290604052915060e01b6020820180516001600160e01b03838183161783525050505061189a565b505050565b60025460ff161561093a5760405163d93c066560e01b815260040160405180910390fd5b6001600160a01b03811632146114545760405162461bcd60e51b815260206004820152602260248201527f546f6b656e4661756365743a20636f6e747261637473206e6f7420616c6c6f77604482015261195960f21b60648201526084016105a0565b6001600160a01b0381165f908152600b602052604090205460ff16156114bc5760405162461bcd60e51b815260206004820181905260248201527f546f6b656e4661756365743a207573657220697320626c61636b6c697374656460448201526064016105a0565b6004546001600160a01b0382165f908152600960205260409020546114e19190611b21565b42101561153c5760405162461bcd60e51b8152602060048201526024808201527f546f6b656e4661756365743a20636f6f6c646f776e20706572696f64206e6f74604482015263081b595d60e21b60648201526084016105a0565b6005546003546001600160a01b0383165f908152600a60205260409020546115649190611b21565b11156107245760405162461bcd60e51b815260206004820152602c60248201527f546f6b656e4661756365743a206d617820746f6b656e7320706572206164647260448201526b195cdcc8195e18d95959195960a21b60648201526084016105a0565b6008546115d79062015180611b21565b421061093a5761093a611817565b6115ed611906565b6002805460ff191690557f5db9ee0a495bf2e6ff9c91a7834c1ba4fdd244a5e8aa4e537bd38aeae4b073aa335b6040516001600160a01b03909116815260200160405180910390a1565b5f61164460025460ff1690565b8061166657506001600160a01b0382165f908152600b602052604090205460ff165b1561167257505f919050565b6004546001600160a01b0383165f908152600960205260409020546116979190611b21565b4210156116a557505f919050565b6005546003546001600160a01b0384165f908152600a60205260409020546116cd9190611b21565b11156116da57505f919050565b6006546003546007546116ed9190611b21565b11156116fa57505f919050565b6003546040516370a0823160e01b81523060048201527f00000000000000000000000000000000000000000000000000000000000000006001600160a01b0316906370a0823190602401602060405180830381865afa15801561175f573d5f5f3e3d5ffd5b505050506040513d601f19601f820116820180604052508101906117839190611af6565b101592915050565b5f80546001600160a01b038381166001600160a01b0319831681178455604051919092169283917f8be0079c531659141344cd1fd0a4f28419497f9722a3daafe3b4186f6b6457e09190a35050565b6117e26113cd565b6002805460ff191660011790557f62e78cea01bee320cd4e420270b5ea74000d11b0c9f74754ebdbfc544b05a25861161a3390565b600780545f90915542600881905560408051918252602082018390527fda4e39dd56d72c2ee3d132e0146bc39e905e78e3bc64c40190421c7b2bcef2ab910160405180910390a150565b6040516001600160a01b0384811660248301528381166044830152606482018390526110599186918216906323b872dd90608401611396565b5f5f60205f8451602086015f885af1806118b9576040513d5f823e3d81fd5b50505f513d915081156118d05780600114156118dd565b6001600160a01b0384163b155b1561105957604051635274afe760e01b81526001600160a01b03851660048201526024016105a0565b60025460ff1661093a57604051638dfc202b60e01b815260040160405180910390fd5b5f60208284031215611939575f5ffd5b5035919050565b80356001600160a01b0381168114611956575f5ffd5b919050565b5f6020828403121561196b575f5ffd5b61197482611940565b9392505050565b5f5f5f5f6080858703121561198e575f5ffd5b5050823594602084013594506040840135936060013592509050565b5f5f604083850312156119bb575f5ffd5b6119c483611940565b946020939093013593505050565b5f5f83601f8401126119e2575f5ffd5b50813567ffffffffffffffff8111156119f9575f5ffd5b6020830191508360208260051b8501011115611a13575f5ffd5b9250929050565b5f5f5f5f60408587031215611a2d575f5ffd5b843567ffffffffffffffff811115611a43575f5ffd5b611a4f878288016119d2565b909550935050602085013567ffffffffffffffff811115611a6e575f5ffd5b611a7a878288016119d2565b95989497509550505050565b5f5f60408385031215611a97575f5ffd5b611aa083611940565b915060208301358015158114611ab4575f5ffd5b809150509250929050565b6020808252601f908201527f546f6b656e4661756365743a20616d6f756e74206d757374206265203e203000604082015260600190565b5f60208284031215611b06575f5ffd5b5051919050565b634e487b7160e01b5f52601160045260245ffd5b80820180821115610baf57610baf611b0d565b60208082526028908201527f546f6b656e4661756365743a20696e73756666696369656e74206661756365746040820152672062616c616e636560c01b606082015260800190565b81810381811115610baf57610baf611b0d565b634e487b7160e01b5f52603260045260245ffdfea2646970667358221220758f09fbfa44bdfbbbf64b5f30a99522dcc826a33b6ac45b8e2e4771e8fda84464736f6c634300081c0033",
  "linkReferences": {},
  "deployedLinkReferences": {},
  "immutableReferences": {
    "1019": [
      {
        "length": 32,
        "start": 1359
      },
      {
        "length": 32,
        "start": 1472
      },
      {
        "length": 32,
        "start": 1703
      },
      {
        "length": 32,
        "start": 1996
      },
      {
        "length": 32,
        "start": 2242
      },
      {
        "length": 32,
        "start": 3522
      },
      {
        "length": 32,
        "start": 3973
      },
      {
        "length": 32,
        "start": 4594
      },
      {
        "length": 32,
        "start": 4707
      },
      {
        "length": 32,
        "start": 5906
      }
    ]
  },
  "inputSourceName": "project/contracts/TokenFaucet.sol",
  "buildInfoId": "solc-0_8_28-e29f3a8a0b25afac78bc1817090c74b1343d41bf"
}