{
  "_format": "hh3-artifact-1",
  "contractName": "SimpleToken",
  "sourceName": "contracts/SimpleToken.sol",
  "abi": [
    {
      "inputs": [
        {
          "internalType": "string",
          "name": "name_",
          "type": "string"
        },
        {
          "internalType": "string",
          "name": "symbol_",
          "type": "string"
        },
        {
          "internalType": "uint256",
          "name": "initialSupply_",
          "type": "uint256"
        },
        {
          "internalType": "uint256",
          "name": "cap_",
          "type": "uint256"
        }
      ],
      "stateMutability": "nonpayable",
      "type": "constructor"
    },
    {
      "inputs": [
        {
          "internalType": "address",
          "name": "spender",
          "type": "address"
        },
        {
          "internalType": "uint256",
          "name": "allowance",
          "type": "uint256"
        },
        {
          "internalType": "uint256",
          "name": "needed",
          "type": "uint256"
        }
      ],
      "name": "ERC20InsufficientAllowance",
      "type": "error"
    },
    {
      "inputs": [
        {
          "internalType": "address",
          "name": "sender",
          "type": "address"
        },
        {
          "internalType": "uint256",
          "name": "balance",
          "type": "uint256"
        },
        {
          "internalType": "uint256",
          "name": "needed",
          "type": "uint256"
        }
      ],
      "name": "ERC20InsufficientBalance",
      "type": "error"
    },
    {
      "inputs": [
        {
          "internalType": "address",
          "name": "approver",
          "type": "address"
        }
      ],
      "name": "ERC20InvalidApprover",
      "type": "error"
    },
    {
      "inputs": [
        {
          "internalType": "address",
          "name": "receiver",
          "type": "address"
        }
      ],
      "name": "ERC20InvalidReceiver",
      "type": "error"
    },
    {
      "inputs": [
        {
          "internalType": "address",
          "name": "sender",
          "type": "address"
        }
      ],
      "name": "ERC20InvalidSender",
      "type": "error"
    },
    {
      "inputs": [
        {
          "internalType": "address",
          "name": "spender",
          "type": "address"
        }
      ],
      "name": "ERC20InvalidSpender",
      "type": "error"
    },
    {
      "inputs": [],
      "name": "EnforcedPause",
      "type": "error"
    },
    {
      "inputs": [],
      "name": "ExpectedPause",
      "type": "error"
    },
    {
      "inputs": [
        {
          "internalType": "address",
          "name": "owner",
          "type": "address"
        }
      ],
      "name": "OwnableInvalidOwner",
      "type": "error"
    },
    {
      "inputs": [
        {
          "internalType": "address",
          "name": "account",
          "type": "address"
        }
      ],
      "name": "OwnableUnauthorizedAccount",
      "type": "error"
    },
    {
      "inputs": [],
      "name": "ReentrancyGuardReentrantCall",
      "type": "error"
    },
    {
      "anonymous": false,
      "inputs": [
        {
          "indexed": true,
          "internalType": "address",
          "name": "owner",
          "type": "address"
        },
        {
          "indexed": true,
          "internalType": "address",
          "name": "spender",
          "type": "address"
        },
        {
          "indexed": false,
          "internalType": "uint256",
          "name": "value",
          "type": "uint256"
        }
      ],
      "name": "Approval",
      "type": "event"
    },
    {
      "anonymous": false,
      "inputs": [
        {
          "indexed": false,
          "internalType": "uint256",
          "name": "newCap",
          "type": "uint256"
        }
      ],
      "name": "CapUpdated",
      "type": "event"
    },
    {
      "anonymous": false,
      "inputs": [
        {
          "indexed": true,
          "internalType": "address",
          "name": "to",
          "type": "address"
        },
        {
          "indexed": false,
          "internalType": "uint256",
          "name": "amount",
          "type": "uint256"
        }
      ],
      "name": "Mint",
      "type": "event"
    },
    {
      "anonymous": false,
      "inputs": [
        {
          "indexed": true,
          "internalType": "address",
          "name": "previousOwner",
          "type": "address"
        },
        {
          "indexed": true,
          "internalType": "address",
          "name": "newOwner",
          "type": "address"
        }
      ],
      "name": "OwnershipTransferred",
      "type": "event"
    },
    {
      "anonymous": false,
      "inputs": [
        {
          "indexed": false,
          "internalType": "address",
          "name": "account",
          "type": "address"
        }
      ],
      "name": "Paused",
      "type": "event"
    },
    {
      "anonymous": false,
      "inputs": [
        {
          "indexed": true,
          "internalType": "address",
          "name": "from",
          "type": "address"
        },
        {
          "indexed": true,
          "internalType": "address",
          "name": "to",
          "type": "address"
        },
        {
          "indexed": false,
          "internalType": "uint256",
          "name": "value",
          "type": "uint256"
        }
      ],
      "name": "Transfer",
      "type": "event"
    },
    {
      "anonymous": false,
      "inputs": [
        {
          "indexed": false,
          "internalType": "address",
          "name": "account",
          "type": "address"
        }
      ],
      "name": "Unpaused",
      "type": "event"
    },
    {
      "inputs": [
        {
          "internalType": "address",
          "name": "owner",
          "type": "address"
        },
        {
          "internalType": "address",
          "name": "spender",
          "type": "address"
        }
      ],
      "name": "allowance",
      "outputs": [
        {
          "internalType": "uint256",
          "name": "",
          "type": "uint256"
        }
      ],
      "stateMutability": "view",
      "type": "function"
    },
    {
      "inputs": [
        {
          "internalType": "address",
          "name": "spender",
          "type": "address"
        },
        {
          "internalType": "uint256",
          "name": "value",
          "type": "uint256"
        }
      ],
      "name": "approve",
      "outputs": [
        {
          "internalType": "bool",
          "name": "",
          "type": "bool"
        }
      ],
      "stateMutability": "nonpayable",
      "type": "function"
    },
    {
      "inputs": [
        {
          "internalType": "address",
          "name": "account",
          "type": "address"
        }
      ],
      "name": "balanceOf",
      "outputs": [
        {
          "internalType": "uint256",
          "name": "",
          "type": "uint256"
        }
      ],
      "stateMutability": "view",
      "type": "function"
    },
    {
      "inputs": [
        {
          "internalType": "address[]",
          "name": "recipients",
          "type": "address[]"
        },
        {
          "internalType": "uint256[]",
          "name": "amounts",
          "type": "uint256[]"
        }
      ],
      "name": "batchMint",
      "outputs": [],
      "stateMutability": "nonpayable",
      "type": "function"
    },
    {
      "inputs": [
        {
          "internalType": "uint256",
          "name": "value",
          "type": "uint256"
        }
      ],
      "name": "burn",
      "outputs": [],
      "stateMutability": "nonpayable",
      "type": "function"
    },
    {
      "inputs": [
        {
          "internalType": "address",
          "name": "account",
          "type": "address"
        },
        {
          "internalType": "uint256",
          "name": "value",
          "type": "uint256"
        }
      ],
      "name": "burnFrom",
      "outputs": [],
      "stateMutability": "nonpayable",
      "type": "function"
    },
    {
      "inputs": [],
      "name": "cap",
      "outputs": [
        {
          "internalType": "uint256",
          "name": "",
          "type": "uint256"
        }
      ],
      "stateMutability": "view",
      "type": "function"
    },
    {
      "inputs": [],
      "name": "decimals",
      "outputs": [
        {
          "internalType": "uint8",
          "name": "",
          "type": "uint8"
        }
      ],
      "stateMutability": "view",
      "type": "function"
    },
    {
      "inputs": [
        {
          "internalType": "address",
          "name": "to",
          "type": "address"
        },
        {
          "internalType": "uint256",
          "name": "amount",
          "type": "uint256"
        }
      ],
      "name": "mint",
      "outputs": [],
      "stateMutability": "nonpayable",
      "type": "function"
    },
    {
      "inputs": [],
      "name": "name",
      "outputs": [
        {
          "internalType": "string",
          "name": "",
          "type": "string"
        }
      ],
      "stateMutability": "view",
      "type": "function"
    },
    {
      "inputs": [],
      "name": "owner",
      "outputs": [
        {
          "internalType": "address",
          "name": "",
          "type": "address"
        }
      ],
      "stateMutability": "view",
      "type": "function"
    },
    {
      "inputs": [],
      "name": "pause",
      "outputs": [],
      "stateMutability": "nonpayable",
      "type": "function"
    },
    {
      "inputs": [],
      "name": "paused",
      "outputs": [
        {
          "internalType": "bool",
          "name": "",
          "type": "bool"
        }
      ],
      "stateMutability": "view",
      "type": "function"
    },
    {
      "inputs": [
        {
          "internalType": "address",
          "name": "token",
          "type": "address"
        },
        {
          "internalType": "uint256",
          "name": "amount",
          "type": "uint256"
        }
      ],
      "name": "recoverERC20",
      "outputs": [],
      "stateMutability": "nonpayable",
      "type": "function"
    },
    {
      "inputs": [],
      "name": "recoverEther",
      "outputs": [],
      "stateMutability": "nonpayable",
      "type": "function"
    },
    {
      "inputs": [],
      "name": "remainingMintableSupply",
      "outputs": [
        {
          "internalType": "uint256",
          "name": "",
          "type": "uint256"
        }
      ],
      "stateMutability": "view",
      "type": "function"
    },
    {
      "inputs": [],
      "name": "renounceOwnership",
      "outputs": [],
      "stateMutability": "nonpayable",
      "type": "function"
    },
    {
      "inputs": [],
      "name": "symbol",
      "outputs": [
        {
          "internalType": "string",
          "name": "",
          "type": "string"
        }
      ],
      "stateMutability": "view",
      "type": "function"
    },
    {
      "inputs": [],
      "name": "totalSupply",
      "outputs": [
        {
          "internalType": "uint256",
          "name": "",
          "type": "uint256"
        }
      ],
      "stateMutability": "view",
      "type": "function"
    },
    {
      "inputs": [
        {
          "internalType": "address",
          "name": "to",
          "type": "address"
        },
        {
          "internalType": "uint256",
          "name": "value",
          "type": "uint256"
        }
      ],
      "name": "transfer",
      "outputs": [
        {
          "internalType": "bool",
          "name": "",
          "type": "bool"
        }
      ],
      "stateMutability": "nonpayable",
      "type": "function"
    },
    {
      "inputs": [
        {
          "internalType": "address",
          "name": "from",
          "type": "address"
        },
        {
          "internalType": "address",
          "name": "to",
          "type": "address"
        },
        {
          "internalType": "uint256",
          "name": "value",
          "type": "uint256"
        }
      ],
      "name": "transferFrom",
      "outputs": [
        {
          "internalType": "bool",
          "name": "",
          "type": "bool"
        }
      ],
      "stateMutability": "nonpayable",
      "type": "function"
    },
    {
      "inputs": [
        {
          "internalType": "address",
          "name": "newOwner",
          "type": "address"
        }
      ],
      "name": "transferOwnership",
      "outputs": [],
      "stateMutability": "nonpayable",
      "type": "function"
    },
    {
      "inputs": [],
      "name": "unpause",
      "outputs": [],
      "stateMutability": "nonpayable",
      "type": "function"
    }
  ],
  "bytecode": "0x60a060405234801561000f575f5ffd5b506040516117c93803806117c983398101604081905261002e91610402565b338484600361003d83826104f9565b50600461004a82826104f9565b5050506001600160a01b03811661007b57604051631e4fbdf760e01b81525f60048201526024015b60405180910390fd5b61008481610165565b506001600655806100e75760405162461bcd60e51b815260206004820152602760248201527f53696d706c65546f6b656e3a20636170206d75737420626520677265617465726044820152660207468616e20360cc1b6064820152608401610072565b808211156101475760405162461bcd60e51b815260206004820152602760248201527f53696d706c65546f6b656e3a20696e697469616c20737570706c7920657863656044820152660656473206361760cc1b6064820152608401610072565b6080819052811561015c5761015c33836101be565b505050506105d8565b600580546001600160a01b03838116610100818102610100600160a81b031985161790945560405193909204169182907f8be0079c531659141344cd1fd0a4f28419497f9722a3daafe3b4186f6b6457e0905f90a35050565b6001600160a01b0382166101e75760405163ec442f0560e01b81525f6004820152602401610072565b6101f25f83836101f6565b5050565b610201838383610206565b505050565b61020e610219565b61020183838361023f565b60055460ff161561023d5760405163d93c066560e01b815260040160405180910390fd5b565b6001600160a01b038316610269578060025f82825461025e91906105b3565b909155506102d99050565b6001600160a01b0383165f90815260208190526040902054818110156102bb5760405163391434e360e21b81526001600160a01b03851660048201526024810182905260448101839052606401610072565b6001600160a01b0384165f9081526020819052604090209082900390555b6001600160a01b0382166102f557600280548290039055610313565b6001600160a01b0382165f9081526020819052604090208054820190555b816001600160a01b0316836001600160a01b03167fddf252ad1be2c89b69c2b068fc378daa952ba7f163c4a11628f55a4df523b3ef8360405161035891815260200190565b60405180910390a3505050565b634e487b7160e01b5f52604160045260245ffd5b5f82601f830112610388575f5ffd5b81516001600160401b038111156103a1576103a1610365565b604051601f8201601f19908116603f011681016001600160401b03811182821017156103cf576103cf610365565b6040528181528382016020018510156103e6575f5ffd5b8160208501602083015e5f918101602001919091529392505050565b5f5f5f5f60808587031215610415575f5ffd5b84516001600160401b0381111561042a575f5ffd5b61043687828801610379565b602087015190955090506001600160401b03811115610453575f5ffd5b61045f87828801610379565b604087015160609097015195989097509350505050565b600181811c9082168061048a57607f821691505b6020821081036104a857634e487b7160e01b5f52602260045260245ffd5b50919050565b601f82111561020157805f5260205f20601f840160051c810160208510156104d35750805b601f840160051c820191505b818110156104f2575f81556001016104df565b5050505050565b81516001600160401b0381111561051257610512610365565b610526816105208454610476565b846104ae565b6020601f821160018114610558575f83156105415750848201515b5f19600385901b1c1916600184901b1784556104f2565b5f84815260208120601f198516915b828110156105875787850151825560209485019460019092019101610567565b50848210156105a457868401515f19600387901b60f8161c191681555b50505050600190811b01905550565b808201808211156105d257634e487b7160e01b5f52601160045260245ffd5b92915050565b6080516111c46106055f395f81816101ce0152818161040f0152818161048b01526106a901526111c45ff3fe608060405234801561000f575f5ffd5b5060043610610148575f3560e01c80635c975abb116100bf5780638980f11f116100795780638980f11f146102915780638da5cb5b146102a457806395d89b41146102cd578063a9059cbb146102d5578063dd62ed3e146102e8578063f2fde38b14610320575f5ffd5b80635c975abb14610228578063685731071461023357806370a0823114610246578063715018a61461026e57806379cc6790146102765780638456cb5914610289575f5ffd5b8063349f0b9011610110578063349f0b90146101c1578063355274ea146101c95780633f4ba83a146101f057806340c10f19146101fa57806342966c681461020d57806352d8bfc214610220575f5ffd5b806306fdde031461014c578063095ea7b31461016a57806318160ddd1461018d57806323b872dd1461019f578063313ce567146101b2575b5f5ffd5b610154610333565b6040516101619190610eda565b60405180910390f35b61017d610178366004610f2a565b6103c3565b6040519015158152602001610161565b6002545b604051908152602001610161565b61017d6101ad366004610f52565b6103dc565b60405160128152602001610161565b6101916103ff565b6101917f000000000000000000000000000000000000000000000000000000000000000081565b6101f8610438565b005b6101f8610208366004610f2a565b61044a565b6101f861021b366004610f8c565b610563565b6101f8610570565b60055460ff1661017d565b6101f8610241366004610feb565b6105b5565b610191610254366004611057565b6001600160a01b03165f9081526020819052604090205490565b6101f8610861565b6101f8610284366004610f2a565b610872565b6101f8610887565b6101f861029f366004610f2a565b610897565b60055461010090046001600160a01b03166040516001600160a01b039091168152602001610161565b61015461099f565b61017d6102e3366004610f2a565b6109ae565b6101916102f6366004611077565b6001600160a01b039182165f90815260016020908152604080832093909416825291909152205490565b6101f861032e366004611057565b6109bb565b606060038054610342906110a8565b80601f016020809104026020016040519081016040528092919081815260200182805461036e906110a8565b80156103b95780601f10610390576101008083540402835291602001916103b9565b820191905f5260205f20905b81548152906001019060200180831161039c57829003601f168201915b5050505050905090565b5f336103d08185856109f5565b60019150505b92915050565b5f336103e9858285610a02565b6103f4858585610a78565b506001949350505050565b5f61040960025490565b610433907f00000000000000000000000000000000000000000000000000000000000000006110f4565b905090565b610440610ad5565b610448610b08565b565b610452610ad5565b61045a610b5a565b6001600160a01b0382166104895760405162461bcd60e51b815260040161048090611107565b60405180910390fd5b7f0000000000000000000000000000000000000000000000000000000000000000816104b460025490565b6104be9190611148565b11156105085760405162461bcd60e51b815260206004820152601960248201527814da5b5c1b19551bdad95b8e8818d85c08195e18d959591959603a1b6044820152606401610480565b6105128282610b84565b816001600160a01b03167f0f6798a560793a54c3bcfe86a93cde1e73087d944c0ea20544137d41213968858260405161054d91815260200190565b60405180910390a261055f6001600655565b5050565b61056d3382610bb8565b50565b610578610ad5565b6005546040516001600160a01b0361010090920491909116904780156108fc02915f818181858888f1935050505015801561056d573d5f5f3e3d5ffd5b6105bd610ad5565b6105c5610b5a565b8281146106205760405162461bcd60e51b815260206004820152602360248201527f53696d706c65546f6b656e3a20617272617973206c656e677468206d69736d616044820152620e8c6d60eb1b6064820152608401610480565b8261066d5760405162461bcd60e51b815260206004820152601960248201527f53696d706c65546f6b656e3a20656d70747920617272617973000000000000006044820152606401610480565b5f805b828110156106a65783838281811061068a5761068a61115b565b905060200201358261069c9190611148565b9150600101610670565b507f0000000000000000000000000000000000000000000000000000000000000000816106d260025490565b6106dc9190611148565b11156107265760405162461bcd60e51b815260206004820152601960248201527814da5b5c1b19551bdad95b8e8818d85c08195e18d959591959603a1b6044820152606401610480565b5f5b8481101561084f575f8686838181106107435761074361115b565b90506020020160208101906107589190611057565b6001600160a01b03160361077e5760405162461bcd60e51b815260040161048090611107565b6107c68686838181106107935761079361115b565b90506020020160208101906107a89190611057565b8585848181106107ba576107ba61115b565b90506020020135610b84565b8585828181106107d8576107d861115b565b90506020020160208101906107ed9190611057565b6001600160a01b03167f0f6798a560793a54c3bcfe86a93cde1e73087d944c0ea20544137d41213968858585848181106108295761082961115b565b9050602002013560405161083f91815260200190565b60405180910390a2600101610728565b505061085b6001600655565b50505050565b610869610ad5565b6104485f610bec565b61087d823383610a02565b61055f8282610bb8565b61088f610ad5565b610448610c45565b61089f610ad5565b306001600160a01b038316036109055760405162461bcd60e51b815260206004820152602560248201527f53696d706c65546f6b656e3a2063616e6e6f74207265636f766572206f776e206044820152643a37b5b2b760d91b6064820152608401610480565b816001600160a01b031663a9059cbb61092c6005546001600160a01b036101009091041690565b6040516001600160e01b031960e084901b1681526001600160a01b039091166004820152602481018490526044016020604051808303815f875af1158015610976573d5f5f3e3d5ffd5b505050506040513d601f19601f8201168201806040525081019061099a919061116f565b505050565b606060048054610342906110a8565b5f336103d0818585610a78565b6109c3610ad5565b6001600160a01b0381166109ec57604051631e4fbdf760e01b81525f6004820152602401610480565b61056d81610bec565b61099a8383836001610c82565b6001600160a01b038381165f908152600160209081526040808320938616835292905220545f1981101561085b5781811015610a6a57604051637dc7a0d960e11b81526001600160a01b03841660048201526024810182905260448101839052606401610480565b61085b84848484035f610c82565b6001600160a01b038316610aa157604051634b637e8f60e11b81525f6004820152602401610480565b6001600160a01b038216610aca5760405163ec442f0560e01b81525f6004820152602401610480565b61099a838383610d54565b6005546001600160a01b036101009091041633146104485760405163118cdaa760e01b8152336004820152602401610480565b610b10610d5f565b6005805460ff191690557f5db9ee0a495bf2e6ff9c91a7834c1ba4fdd244a5e8aa4e537bd38aeae4b073aa335b6040516001600160a01b03909116815260200160405180910390a1565b600260065403610b7d57604051633ee5aeb560e01b815260040160405180910390fd5b6002600655565b6001600160a01b038216610bad5760405163ec442f0560e01b81525f6004820152602401610480565b61055f5f8383610d54565b6001600160a01b038216610be157604051634b637e8f60e11b81525f6004820152602401610480565b61055f825f83610d54565b600580546001600160a01b03838116610100818102610100600160a81b031985161790945560405193909204169182907f8be0079c531659141344cd1fd0a4f28419497f9722a3daafe3b4186f6b6457e0905f90a35050565b610c4d610d82565b6005805460ff191660011790557f62e78cea01bee320cd4e420270b5ea74000d11b0c9f74754ebdbfc544b05a258610b3d3390565b6001600160a01b038416610cab5760405163e602df0560e01b81525f6004820152602401610480565b6001600160a01b038316610cd457604051634a1406b160e11b81525f6004820152602401610480565b6001600160a01b038085165f908152600160209081526040808320938716835292905220829055801561085b57826001600160a01b0316846001600160a01b03167f8c5be1e5ebec7d5bd14f71427d1e84f3dd0314c0f7b2291e5b200ac8c7c3b92584604051610d4691815260200190565b60405180910390a350505050565b61099a838383610da6565b60055460ff1661044857604051638dfc202b60e01b815260040160405180910390fd5b60055460ff16156104485760405163d93c066560e01b815260040160405180910390fd5b610dae610d82565b61099a8383836001600160a01b038316610dde578060025f828254610dd39190611148565b90915550610e4e9050565b6001600160a01b0383165f9081526020819052604090205481811015610e305760405163391434e360e21b81526001600160a01b03851660048201526024810182905260448101839052606401610480565b6001600160a01b0384165f9081526020819052604090209082900390555b6001600160a01b038216610e6a57600280548290039055610e88565b6001600160a01b0382165f9081526020819052604090208054820190555b816001600160a01b0316836001600160a01b03167fddf252ad1be2c89b69c2b068fc378daa952ba7f163c4a11628f55a4df523b3ef83604051610ecd91815260200190565b60405180910390a3505050565b602081525f82518060208401528060208501604085015e5f604082850101526040601f19601f83011684010191505092915050565b80356001600160a01b0381168114610f25575f5ffd5b919050565b5f5f60408385031215610f3b575f5ffd5b610f4483610f0f565b946020939093013593505050565b5f5f5f60608486031215610f64575f5ffd5b610f6d84610f0f565b9250610f7b60208501610f0f565b929592945050506040919091013590565b5f60208284031215610f9c575f5ffd5b5035919050565b5f5f83601f840112610fb3575f5ffd5b50813567ffffffffffffffff811115610fca575f5ffd5b6020830191508360208260051b8501011115610fe4575f5ffd5b9250929050565b5f5f5f5f60408587031215610ffe575f5ffd5b843567ffffffffffffffff811115611014575f5ffd5b61102087828801610fa3565b909550935050602085013567ffffffffffffffff81111561103f575f5ffd5b61104b87828801610fa3565b95989497509550505050565b5f60208284031215611067575f5ffd5b61107082610f0f565b9392505050565b5f5f60408385031215611088575f5ffd5b61109183610f0f565b915061109f60208401610f0f565b90509250929050565b600181811c908216806110bc57607f821691505b6020821081036110da57634e487b7160e01b5f52602260045260245ffd5b50919050565b634e487b7160e01b5f52601160045260245ffd5b818103818111156103d6576103d66110e0565b60208082526021908201527f53696d706c65546f6b656e3a206d696e7420746f207a65726f206164647265736040820152607360f81b606082015260800190565b808201808211156103d6576103d66110e0565b634e487b7160e01b5f52603260045260245ffd5b5f6020828403121561117f575f5ffd5b81518015158114611070575f5ffdfea26469706673582212207e143b011b70c94df62c30c13aadc0f6252ddf075a33b45ae918b859ae095cbd64736f6c634300081c0033",
  "linkReferences": {},
  "deployedLinkReferences": {},
  "immutableReferences": {
    "1210": [
      {
        "length": 32,
        "start": 462
      },
      {
        "length": 32,
        "start": 1039
      },
      {
        "length": 32,
        "start": 1163
      },
      {
        "length": 32,
        "start": 1705
      }
    ]
  },
  "inputSourceName": "project/contracts/SimpleToken.sol",
  "buildInfoId": "solc-0_8_28-1a9c443bec1e2a53c8c365971bc425d7157c6607"
}